{
  "_format": "hh-sol-artifact-1",
  "contractName": "CrowdFunding",
  "sourceName": "contracts/CrowFunding.sol",
  "abi": [
    {
      "inputs": [
        {
          "internalType": "uint256",
          "name": "",
          "type": "uint256"
        }
      ],
      "name": "campaigns",
      "outputs": [
        {
          "internalType": "address",
          "name": "owner",
          "type": "address"
        },
        {
          "internalType": "string",
          "name": "title",
          "type": "string"
        },
        {
          "internalType": "string",
          "name": "description",
          "type": "string"
        },
        {
          "internalType": "uint256",
          "name": "target",
          "type": "uint256"
        },
        {
          "internalType": "uint256",
          "name": "amount",
          "type": "uint256"
        },
        {
          "internalType": "uint256",
          "name": "deadline",
          "type": "uint256"
        },
        {
          "internalType": "uint256",
          "name": "amountCollection",
          "type": "uint256"
        },
        {
          "internalType": "string",
          "name": "img",
          "type": "string"
        }
      ],
      "stateMutability": "view",
      "type": "function"
    },
    {
      "inputs": [
        {
          "internalType": "address",
          "name": "_owner",
          "type": "address"
        },
        {
          "internalType": "string",
          "name": "_title",
          "type": "string"
        },
        {
          "internalType": "string",
          "name": "_description",
          "type": "string"
        },
        {
          "internalType": "uint256",
          "name": "_target",
          "type": "uint256"
        },
        {
          "internalType": "uint256",
          "name": "_deadline",
          "type": "uint256"
        },
        {
          "internalType": "string",
          "name": "_image",
          "type": "string"
        }
      ],
      "name": "createCampaign",
      "outputs": [
        {
          "internalType": "uint256",
          "name": "",
          "type": "uint256"
        }
      ],
      "stateMutability": "nonpayable",
      "type": "function"
    },
    {
      "inputs": [
        {
          "internalType": "uint256",
          "name": "_id",
          "type": "uint256"
        }
      ],
      "name": "donateInCampaign",
      "outputs": [],
      "stateMutability": "payable",
      "type": "function"
    },
    {
      "inputs": [],
      "name": "getCampaigns",
      "outputs": [
        {
          "components": [
            {
              "internalType": "address",
              "name": "owner",
              "type": "address"
            },
            {
              "internalType": "string",
              "name": "title",
              "type": "string"
            },
            {
              "internalType": "string",
              "name": "description",
              "type": "string"
            },
            {
              "internalType": "uint256",
              "name": "target",
              "type": "uint256"
            },
            {
              "internalType": "uint256",
              "name": "amount",
              "type": "uint256"
            },
            {
              "internalType": "uint256",
              "name": "deadline",
              "type": "uint256"
            },
            {
              "internalType": "uint256[]",
              "name": "donations",
              "type": "uint256[]"
            },
            {
              "internalType": "uint256",
              "name": "amountCollection",
              "type": "uint256"
            },
            {
              "internalType": "string",
              "name": "img",
              "type": "string"
            },
            {
              "internalType": "address[]",
              "name": "donators",
              "type": "address[]"
            }
          ],
          "internalType": "struct CrowdFunding.Campaign[]",
          "name": "",
          "type": "tuple[]"
        }
      ],
      "stateMutability": "view",
      "type": "function"
    },
    {
      "inputs": [
        {
          "internalType": "uint256",
          "name": "_id",
          "type": "uint256"
        }
      ],
      "name": "getDonators",
      "outputs": [
        {
          "internalType": "address[]",
          "name": "",
          "type": "address[]"
        },
        {
          "internalType": "uint256[]",
          "name": "",
          "type": "uint256[]"
        }
      ],
      "stateMutability": "view",
      "type": "function"
    },
    {
      "inputs": [],
      "name": "numberOfcampaigns",
      "outputs": [
        {
          "internalType": "uint256",
          "name": "",
          "type": "uint256"
        }
      ],
      "stateMutability": "view",
      "type": "function"
    }
  ],
  "bytecode": "0x6080604052600060015534801561001557600080fd5b50610f52806100256000396000f3fe6080604052600436106100555760003560e01c80630fa91fa91461005a578063141961bc1461009157806374e9ce4e146100c55780639943e3a1146100da578063a6b0363314610108578063d8f1f08a1461012a575b600080fd5b34801561006657600080fd5b5061007a610075366004610a2a565b610140565b604051610088929190610a43565b60405180910390f35b34801561009d57600080fd5b506100b16100ac366004610a2a565b61020f565b604051610088989796959493929190610b14565b6100d86100d3366004610a2a565b6103f2565b005b3480156100e657600080fd5b506100fa6100f5366004610c2b565b6104b4565b604051908152602001610088565b34801561011457600080fd5b5061011d6105d3565b6040516100889190610d58565b34801561013657600080fd5b506100fa60015481565b600081815260208181526040918290206009810180548451818502810185019095528085526060948594929360060192909184918301828280156101ad57602002820191906000526020600020905b81546001600160a01b0316815260019091019060200180831161018f575b50505050509150808054806020026020016040519081016040528092919081815260200182805480156101ff57602002820191906000526020600020905b8154815260200190600101908083116101eb575b5050505050905091509150915091565b600060208190529081526040902080546001820180546001600160a01b03909216929161023b90610e71565b80601f016020809104026020016040519081016040528092919081815260200182805461026790610e71565b80156102b45780601f10610289576101008083540402835291602001916102b4565b820191906000526020600020905b81548152906001019060200180831161029757829003601f168201915b5050505050908060020180546102c990610e71565b80601f01602080910402602001604051908101604052809291908181526020018280546102f590610e71565b80156103425780601f1061031757610100808354040283529160200191610342565b820191906000526020600020905b81548152906001019060200180831161032557829003601f168201915b50505050509080600301549080600401549080600501549080600701549080600801805461036f90610e71565b80601f016020809104026020016040519081016040528092919081815260200182805461039b90610e71565b80156103e85780601f106103bd576101008083540402835291602001916103e8565b820191906000526020600020905b8154815290600101906020018083116103cb57829003601f168201915b5050505050905088565b600081815260208181526040808320600981018054600180820183559186528486200180546001600160a01b0319163317905560068201805491820181558552928420349301839055805491519293909290916001600160a01b03169084908381818185875af1925050503d8060008114610489576040519150601f19603f3d011682016040523d82523d6000602084013e61048e565b606091505b5050905080156104ae578282600701546104a89190610ebc565b60078301555b50505050565b6001546000908152602081905260408120600581015442116105345760405162461bcd60e51b815260206004820152602f60248201527f54686520646561646c696e652063616e6e6f742062652070726576696f75732060448201526e746f2070726573656e74206461792160881b606482015260840160405180910390fd5b80546001600160a01b0319166001600160a01b038916178155865161056290600183019060208a0190610991565b5085516105789060028301906020890190610991565b5060038101859055600581018490556000600482015582516105a39060088301906020860190610991565b50600180549060006105b483610ed4565b9190505550600180546105c79190610eef565b98975050505050505050565b6060600060015467ffffffffffffffff8111156105f2576105f2610b88565b60405190808252806020026020018201604052801561068257816020015b61066f60405180610140016040528060006001600160a01b031681526020016060815260200160608152602001600081526020016000815260200160008152602001606081526020016000815260200160608152602001606081525090565b8152602001906001900390816106105790505b50905060005b60015481101561098b57600081815260208181526040918290208251610140810190935280546001600160a01b03168352600181018054919392849290840191906106d290610e71565b80601f01602080910402602001604051908101604052809291908181526020018280546106fe90610e71565b801561074b5780601f106107205761010080835404028352916020019161074b565b820191906000526020600020905b81548152906001019060200180831161072e57829003601f168201915b5050505050815260200160028201805461076490610e71565b80601f016020809104026020016040519081016040528092919081815260200182805461079090610e71565b80156107dd5780601f106107b2576101008083540402835291602001916107dd565b820191906000526020600020905b8154815290600101906020018083116107c057829003601f168201915b505050505081526020016003820154815260200160048201548152602001600582015481526020016006820180548060200260200160405190810160405280929190818152602001828054801561085357602002820191906000526020600020905b81548152602001906001019080831161083f575b505050505081526020016007820154815260200160088201805461087690610e71565b80601f01602080910402602001604051908101604052809291908181526020018280546108a290610e71565b80156108ef5780601f106108c4576101008083540402835291602001916108ef565b820191906000526020600020905b8154815290600101906020018083116108d257829003601f168201915b505050505081526020016009820180548060200260200160405190810160405280929190818152602001828054801561095157602002820191906000526020600020905b81546001600160a01b03168152600190910190602001808311610933575b50505050508152505083838151811061096c5761096c610f06565b602002602001018190525050808061098390610ed4565b915050610688565b50919050565b82805461099d90610e71565b90600052602060002090601f0160209004810192826109bf5760008555610a05565b82601f106109d857805160ff1916838001178555610a05565b82800160010185558215610a05579182015b82811115610a055782518255916020019190600101906109ea565b50610a11929150610a15565b5090565b5b80821115610a115760008155600101610a16565b600060208284031215610a3c57600080fd5b5035919050565b604080825283519082018190526000906020906060840190828701845b82811015610a855781516001600160a01b031684529284019290840190600101610a60565b5050508381038285015284518082528583019183019060005b81811015610aba57835183529284019291840191600101610a9e565b5090979650505050505050565b6000815180845260005b81811015610aed57602081850181015186830182015201610ad1565b81811115610aff576000602083870101525b50601f01601f19169290920160200192915050565b6001600160a01b038916815261010060208201819052600090610b398382018b610ac7565b90508281036040840152610b4d818a610ac7565b90508760608401528660808401528560a08401528460c084015282810360e0840152610b798185610ac7565b9b9a5050505050505050505050565b634e487b7160e01b600052604160045260246000fd5b600082601f830112610baf57600080fd5b813567ffffffffffffffff80821115610bca57610bca610b88565b604051601f8301601f19908116603f01168101908282118183101715610bf257610bf2610b88565b81604052838152866020858801011115610c0b57600080fd5b836020870160208301376000602085830101528094505050505092915050565b60008060008060008060c08789031215610c4457600080fd5b86356001600160a01b0381168114610c5b57600080fd5b9550602087013567ffffffffffffffff80821115610c7857600080fd5b610c848a838b01610b9e565b96506040890135915080821115610c9a57600080fd5b610ca68a838b01610b9e565b9550606089013594506080890135935060a0890135915080821115610cca57600080fd5b50610cd789828a01610b9e565b9150509295509295509295565b600081518084526020808501945080840160005b83811015610d1457815187529582019590820190600101610cf8565b509495945050505050565b600081518084526020808501945080840160005b83811015610d145781516001600160a01b031687529582019590820190600101610d33565b60006020808301818452808551808352604092508286019150828160051b87010184880160005b83811015610e6357888303603f19018552815180516001600160a01b0316845261014088820151818a870152610db782870182610ac7565b9150508782015185820389870152610dcf8282610ac7565b606084810151908801526080808501519088015260a0808501519088015260c080850151888303828a01529193509150610e098382610ce4565b9250505060e08083015181870152506101008083015186830382880152610e308382610ac7565b925050506101208083015192508582038187015250610e4f8183610d1f565b968901969450505090860190600101610d7f565b509098975050505050505050565b600181811c90821680610e8557607f821691505b6020821081141561098b57634e487b7160e01b600052602260045260246000fd5b634e487b7160e01b600052601160045260246000fd5b60008219821115610ecf57610ecf610ea6565b500190565b6000600019821415610ee857610ee8610ea6565b5060010190565b600082821015610f0157610f01610ea6565b500390565b634e487b7160e01b600052603260045260246000fdfea2646970667358221220e9881dff8b684a496f50b5c86301c9c21e4da6294b8304974d41df209ee1133e64736f6c63430008090033",
  "linkReferences": {},
  "deployedLinkReferences": {}
}